{
  "contractName": "SupplyChain",
  "abi": [
    {
      "inputs": [],
      "stateMutability": "nonpayable",
      "type": "constructor"
    },
    {
      "anonymous": false,
      "inputs": [
        {
          "indexed": false,
          "internalType": "address",
          "name": "_address",
          "type": "address"
        },
        {
          "indexed": false,
          "internalType": "string",
          "name": "name",
          "type": "string"
        },
        {
          "indexed": false,
          "internalType": "string",
          "name": "userLoc",
          "type": "string"
        },
        {
          "indexed": false,
          "internalType": "uint256",
          "name": "role",
          "type": "uint256"
        },
        {
          "indexed": false,
          "internalType": "address",
          "name": "userAddr",
          "type": "address"
        }
      ],
      "name": "UserRegister",
      "type": "event"
    },
    {
      "anonymous": false,
      "inputs": [
        {
          "indexed": false,
          "internalType": "address",
          "name": "buyer",
          "type": "address"
        },
        {
          "indexed": true,
          "internalType": "address",
          "name": "seller",
          "type": "address"
        },
        {
          "indexed": false,
          "internalType": "address",
          "name": "packageAddr",
          "type": "address"
        },
        {
          "indexed": false,
          "internalType": "bytes",
          "name": "signature",
          "type": "bytes"
        },
        {
          "indexed": true,
          "internalType": "uint256",
          "name": "timestamp",
          "type": "uint256"
        }
      ],
      "name": "buyEvent",
      "type": "event"
    },
    {
      "anonymous": false,
      "inputs": [
        {
          "indexed": true,
          "internalType": "address",
          "name": "buyer",
          "type": "address"
        },
        {
          "indexed": false,
          "internalType": "address",
          "name": "seller",
          "type": "address"
        },
        {
          "indexed": false,
          "internalType": "address",
          "name": "packageAddr",
          "type": "address"
        },
        {
          "indexed": false,
          "internalType": "bytes",
          "name": "signature",
          "type": "bytes"
        },
        {
          "indexed": true,
          "internalType": "uint256",
          "name": "timestamp",
          "type": "uint256"
        }
      ],
      "name": "respondEvent",
      "type": "event"
    },
    {
      "anonymous": false,
      "inputs": [
        {
          "indexed": false,
          "internalType": "address",
          "name": "seller",
          "type": "address"
        },
        {
          "indexed": false,
          "internalType": "address",
          "name": "buyer",
          "type": "address"
        },
        {
          "indexed": true,
          "internalType": "address",
          "name": "packageAddr",
          "type": "address"
        },
        {
          "indexed": false,
          "internalType": "bytes",
          "name": "signature",
          "type": "bytes"
        },
        {
          "indexed": true,
          "internalType": "uint256",
          "name": "timestamp",
          "type": "uint256"
        }
      ],
      "name": "sendEvent",
      "type": "event"
    },
    {
      "inputs": [],
      "name": "Owner",
      "outputs": [
        {
          "internalType": "address",
          "name": "",
          "type": "address"
        }
      ],
      "stateMutability": "view",
      "type": "function",
      "constant": true
    },
    {
      "inputs": [
        {
          "internalType": "address",
          "name": "",
          "type": "address"
        },
        {
          "internalType": "uint256",
          "name": "",
          "type": "uint256"
        }
      ],
      "name": "manufacturerProducts",
      "outputs": [
        {
          "internalType": "address",
          "name": "",
          "type": "address"
        }
      ],
      "stateMutability": "view",
      "type": "function",
      "constant": true
    },
    {
      "inputs": [
        {
          "internalType": "address",
          "name": "",
          "type": "address"
        },
        {
          "internalType": "uint256",
          "name": "",
          "type": "uint256"
        }
      ],
      "name": "manufacturerRawMaterials",
      "outputs": [
        {
          "internalType": "address",
          "name": "",
          "type": "address"
        }
      ],
      "stateMutability": "view",
      "type": "function",
      "constant": true
    },
    {
      "inputs": [
        {
          "internalType": "address",
          "name": "",
          "type": "address"
        }
      ],
      "name": "userInfo",
      "outputs": [
        {
          "internalType": "string",
          "name": "name",
          "type": "string"
        },
        {
          "internalType": "string",
          "name": "userLoc",
          "type": "string"
        },
        {
          "internalType": "enum SupplyChain.roles",
          "name": "role",
          "type": "uint8"
        },
        {
          "internalType": "address",
          "name": "userAddr",
          "type": "address"
        }
      ],
      "stateMutability": "view",
      "type": "function",
      "constant": true
    },
    {
      "inputs": [
        {
          "internalType": "address",
          "name": "buyer",
          "type": "address"
        },
        {
          "internalType": "address",
          "name": "seller",
          "type": "address"
        },
        {
          "internalType": "address",
          "name": "packageAddr",
          "type": "address"
        },
        {
          "internalType": "bytes",
          "name": "signature",
          "type": "bytes"
        }
      ],
      "name": "requestProduct",
      "outputs": [],
      "stateMutability": "nonpayable",
      "type": "function"
    },
    {
      "inputs": [
        {
          "internalType": "address",
          "name": "buyer",
          "type": "address"
        },
        {
          "internalType": "address",
          "name": "seller",
          "type": "address"
        },
        {
          "internalType": "address",
          "name": "packageAddr",
          "type": "address"
        },
        {
          "internalType": "bytes",
          "name": "signature",
          "type": "bytes"
        }
      ],
      "name": "respondToEntity",
      "outputs": [],
      "stateMutability": "nonpayable",
      "type": "function"
    },
    {
      "inputs": [
        {
          "internalType": "address",
          "name": "p",
          "type": "address"
        },
        {
          "internalType": "bytes32",
          "name": "_hashedMessage",
          "type": "bytes32"
        },
        {
          "internalType": "uint8",
          "name": "_v",
          "type": "uint8"
        },
        {
          "internalType": "bytes32",
          "name": "_r",
          "type": "bytes32"
        },
        {
          "internalType": "bytes32",
          "name": "_s",
          "type": "bytes32"
        }
      ],
      "name": "verify",
      "outputs": [
        {
          "internalType": "bool",
          "name": "",
          "type": "bool"
        }
      ],
      "stateMutability": "pure",
      "type": "function",
      "constant": true
    },
    {
      "inputs": [
        {
          "internalType": "address",
          "name": "buyer",
          "type": "address"
        },
        {
          "internalType": "address",
          "name": "seller",
          "type": "address"
        },
        {
          "internalType": "address",
          "name": "packageAddr",
          "type": "address"
        },
        {
          "internalType": "bytes",
          "name": "signature",
          "type": "bytes"
        }
      ],
      "name": "sendPackageToEntity",
      "outputs": [],
      "stateMutability": "nonpayable",
      "type": "function"
    },
    {
      "inputs": [
        {
          "internalType": "string",
          "name": "_name",
          "type": "string"
        },
        {
          "internalType": "string",
          "name": "_loc",
          "type": "string"
        },
        {
          "internalType": "uint256",
          "name": "_role",
          "type": "uint256"
        },
        {
          "internalType": "address",
          "name": "_userAddr",
          "type": "address"
        }
      ],
      "name": "registerUser",
      "outputs": [],
      "stateMutability": "nonpayable",
      "type": "function"
    },
    {
      "inputs": [
        {
          "internalType": "address",
          "name": "_address",
          "type": "address"
        }
      ],
      "name": "getUserInfo",
      "outputs": [
        {
          "components": [
            {
              "internalType": "string",
              "name": "name",
              "type": "string"
            },
            {
              "internalType": "string",
              "name": "userLoc",
              "type": "string"
            },
            {
              "internalType": "enum SupplyChain.roles",
              "name": "role",
              "type": "uint8"
            },
            {
              "internalType": "address",
              "name": "userAddr",
              "type": "address"
            }
          ],
          "internalType": "struct SupplyChain.userData",
          "name": "",
          "type": "tuple"
        }
      ],
      "stateMutability": "view",
      "type": "function",
      "constant": true
    },
    {
      "inputs": [
        {
          "internalType": "string",
          "name": "_description",
          "type": "string"
        },
        {
          "internalType": "uint256",
          "name": "_quantity",
          "type": "uint256"
        },
        {
          "internalType": "address",
          "name": "_transporterAddr",
          "type": "address"
        },
        {
          "internalType": "address",
          "name": "_manufacturerAddr",
          "type": "address"
        }
      ],
      "name": "createRawMaterialPackage",
      "outputs": [],
      "stateMutability": "nonpayable",
      "type": "function"
    },
    {
      "inputs": [],
      "name": "getAllPackages",
      "outputs": [
        {
          "internalType": "address[]",
          "name": "",
          "type": "address[]"
        }
      ],
      "stateMutability": "view",
      "type": "function",
      "constant": true
    },
    {
      "inputs": [
        {
          "internalType": "address",
          "name": "_address",
          "type": "address"
        },
        {
          "internalType": "uint256",
          "name": "_transporterType",
          "type": "uint256"
        }
      ],
      "name": "transporterHandlePackage",
      "outputs": [],
      "stateMutability": "nonpayable",
      "type": "function"
    },
    {
      "inputs": [
        {
          "internalType": "address",
          "name": "_addr",
          "type": "address"
        },
        {
          "internalType": "address",
          "name": "_tempAddrManufacturer",
          "type": "address"
        }
      ],
      "name": "manufacturerReceivedRawMaterials",
      "outputs": [],
      "stateMutability": "nonpayable",
      "type": "function"
    }
  ],
  "bytecode": "0x608060405234801561001057600080fd5b50336000806101000a81548173ffffffffffffffffffffffffffffffffffffffff021916908373ffffffffffffffffffffffffffffffffffffffff160217905550613f4e806100606000396000f3fe60806040523480156200001157600080fd5b5060043610620001005760003560e01c80638ccc8db71162000099578063b8b16ca3116200006f578063b8b16ca314620002ba578063d06f7b5514620002da578063e0cf92fe14620002fa578063ec5c83d1146200031a5762000100565b80638ccc8db7146200024257806395feeb711462000278578063b4a99a4e14620002985762000100565b8063415122ef11620000db578063415122ef1462000180578063506535f314620001a05780635fe2b9ce14620001d65780636386c1c7146200020c5762000100565b80630a421f0f146200010557806312bda43914620001275780631959a0021462000147575b600080fd5b6200010f6200033a565b6040516200011e919062001e7c565b60405180910390f35b6200014560048036038101906200013f9190620016ec565b620004b3565b005b6200016560048036038101906200015f919062001578565b620006a6565b60405162000177949392919062001f0a565b60405180910390f35b6200019e600480360381019062000198919062001759565b6200083b565b005b620001be6004803603810190620001b891906200166a565b62000a7f565b604051620001cd919062001ea0565b60405180910390f35b620001f46004803603810190620001ee9190620016ec565b62000b77565b60405162000203919062001d1f565b60405180910390f35b6200022a600480360381019062000224919062001578565b62000bc3565b60405162000239919062001fed565b60405180910390f35b6200026060048036038101906200025a9190620016ec565b62000def565b6040516200026f919062001d1f565b60405180910390f35b620002966004803603810190620002909190620017f7565b62000e3b565b005b620002a262001050565b604051620002b1919062001d1f565b60405180910390f35b620002d86004803603810190620002d29190620015e5565b62001075565b005b620002f86004803603810190620002f29190620015e5565b620010d0565b005b620003186004803603810190620003129190620015e5565b6200112b565b005b620003386004803603810190620003329190620015a4565b62001186565b005b60606000600260003373ffffffffffffffffffffffffffffffffffffffff1673ffffffffffffffffffffffffffffffffffffffff16815260200190815260200160002080549050905060608167ffffffffffffffff811180156200039d57600080fd5b50604051908082528060200260200182016040528015620003cd5781602001602082028036833780820191505090505b50905060008090505b82811015620004aa57600260003373ffffffffffffffffffffffffffffffffffffffff1673ffffffffffffffffffffffffffffffffffffffff16815260200190815260200160002081815481106200042a57fe5b9060005260206000200160009054906101000a900473ffffffffffffffffffffffffffffffffffffffff168282815181106200046257fe5b602002602001019073ffffffffffffffffffffffffffffffffffffffff16908173ffffffffffffffffffffffffffffffffffffffff16815250508080600101915050620003d6565b50809250505090565b60026004811115620004c157fe5b600160003373ffffffffffffffffffffffffffffffffffffffff1673ffffffffffffffffffffffffffffffffffffffff16815260200190815260200160002060020160009054906101000a900460ff1660048111156200051d57fe5b1462000560576040517f08c379a0000000000000000000000000000000000000000000000000000000008152600401620005579062001fa9565b60405180910390fd5b8060008111620005a7576040517f08c379a00000000000000000000000000000000000000000000000000000000081526004016200059e9062001fcb565b60405180910390fd5b600182141562000626578273ffffffffffffffffffffffffffffffffffffffff1663e594caa5336040518263ffffffff1660e01b8152600401620005ec919062001d3c565b600060405180830381600087803b1580156200060757600080fd5b505af11580156200061c573d6000803e3d6000fd5b50505050620006a1565b6002821415620006a0578273ffffffffffffffffffffffffffffffffffffffff166394c60714336040518263ffffffff1660e01b81526004016200066b919062001d3c565b600060405180830381600087803b1580156200068657600080fd5b505af11580156200069b573d6000803e3d6000fd5b505050505b5b505050565b6001602052806000526040600020600091509050806000018054600181600116156101000203166002900480601f016020809104026020016040519081016040528092919081815260200182805460018160011615610100020316600290048015620007565780601f106200072a5761010080835404028352916020019162000756565b820191906000526020600020905b8154815290600101906020018083116200073857829003601f168201915b505050505090806001018054600181600116156101000203166002900480601f016020809104026020016040519081016040528092919081815260200182805460018160011615610100020316600290048015620007f85780601f10620007cc57610100808354040283529160200191620007f8565b820191906000526020600020905b815481529060010190602001808311620007da57829003601f168201915b5050505050908060020160009054906101000a900460ff16908060020160019054906101000a900473ffffffffffffffffffffffffffffffffffffffff16905084565b3373ffffffffffffffffffffffffffffffffffffffff166000809054906101000a900473ffffffffffffffffffffffffffffffffffffffff1673ffffffffffffffffffffffffffffffffffffffff16146200089557600080fd5b83600160008373ffffffffffffffffffffffffffffffffffffffff1673ffffffffffffffffffffffffffffffffffffffff1681526020019081526020016000206000019080519060200190620008ed92919062001346565b5082600160008373ffffffffffffffffffffffffffffffffffffffff1673ffffffffffffffffffffffffffffffffffffffff16815260200190815260200160002060010190805190602001906200094692919062001346565b508160048111156200095457fe5b600160008373ffffffffffffffffffffffffffffffffffffffff1673ffffffffffffffffffffffffffffffffffffffff16815260200190815260200160002060020160006101000a81548160ff02191690836004811115620009b257fe5b021790555080600160008373ffffffffffffffffffffffffffffffffffffffff1673ffffffffffffffffffffffffffffffffffffffff16815260200190815260200160002060020160016101000a81548173ffffffffffffffffffffffffffffffffffffffff021916908373ffffffffffffffffffffffffffffffffffffffff1602179055507f75e3c6234d5d9ad8b412c48cb3a3779dbd124c510956f3ba01861e42c6ec4e3e818585858560405162000a7195949392919062001e11565b60405180910390a150505050565b600060606040518060400160405280601c81526020017f19457468657265756d205369676e6564204d6573736167653a0a33320000000081525090506000818760405160200162000ad292919062001cf3565b6040516020818303038152906040528051906020012090506001818787876040516000815260200160405260405162000b0f949392919062001ebd565b6020604051602081039080840390855afa15801562000b32573d6000803e3d6000fd5b5050506020604051035173ffffffffffffffffffffffffffffffffffffffff168873ffffffffffffffffffffffffffffffffffffffff16149250505095945050505050565b6004602052816000526040600020818154811062000b9157fe5b906000526020600020016000915091509054906101000a900473ffffffffffffffffffffffffffffffffffffffff1681565b62000bcd620013cd565b600160008373ffffffffffffffffffffffffffffffffffffffff1673ffffffffffffffffffffffffffffffffffffffff168152602001908152602001600020604051806080016040529081600082018054600181600116156101000203166002900480601f01602080910402602001604051908101604052809291908181526020018280546001816001161561010002031660029004801562000cb45780601f1062000c885761010080835404028352916020019162000cb4565b820191906000526020600020905b81548152906001019060200180831162000c9657829003601f168201915b50505050508152602001600182018054600181600116156101000203166002900480601f01602080910402602001604051908101604052809291908181526020018280546001816001161561010002031660029004801562000d5a5780601f1062000d2e5761010080835404028352916020019162000d5a565b820191906000526020600020905b81548152906001019060200180831162000d3c57829003601f168201915b505050505081526020016002820160009054906101000a900460ff16600481111562000d8257fe5b600481111562000d8e57fe5b81526020016002820160019054906101000a900473ffffffffffffffffffffffffffffffffffffffff1673ffffffffffffffffffffffffffffffffffffffff1673ffffffffffffffffffffffffffffffffffffffff16815250509050919050565b6003602052816000526040600020818154811062000e0957fe5b906000526020600020016000915091509054906101000a900473ffffffffffffffffffffffffffffffffffffffff1681565b6001600481111562000e4957fe5b600160003373ffffffffffffffffffffffffffffffffffffffff1673ffffffffffffffffffffffffffffffffffffffff16815260200190815260200160002060020160009054906101000a900460ff16600481111562000ea557fe5b1462000ee8576040517f08c379a000000000000000000000000000000000000000000000000000000000815260040162000edf9062001f65565b60405180910390fd5b6000336002334260405160200162000f0292919062001caa565b60405160208183030381529060405260405162000f20919062001cda565b602060405180830381855afa15801562000f3e573d6000803e3d6000fd5b5050506040513d601f19601f8201168201806040525081019062000f6391906200172d565b60601c8686868660405162000f789062001417565b62000f899695949392919062001d59565b604051809103906000f08015801562000fa6573d6000803e3d6000fd5b509050600260003373ffffffffffffffffffffffffffffffffffffffff1673ffffffffffffffffffffffffffffffffffffffff168152602001908152602001600020819080600181540180825580915050600190039060005260206000200160009091909190916101000a81548173ffffffffffffffffffffffffffffffffffffffff021916908373ffffffffffffffffffffffffffffffffffffffff1602179055505050505050565b6000809054906101000a900473ffffffffffffffffffffffffffffffffffffffff1681565b428373ffffffffffffffffffffffffffffffffffffffff167f22561ca0666e99052dd8231a6c5c337204ed5658c357aa6afcd53c207acfac67868585604051620010c29392919062001dcd565b60405180910390a350505050565b428273ffffffffffffffffffffffffffffffffffffffff167f31f87de04fd141167b8131be7a8ccb2bac63361a15671c96d90c39ddc9ef909d8587856040516200111d9392919062001dcd565b60405180910390a350505050565b428473ffffffffffffffffffffffffffffffffffffffff167f9151271dfe612a18bf915ee1609e6f94f62fd775c704a0ae2ef091519f0c9b39858585604051620011789392919062001dcd565b60405180910390a350505050565b600360048111156200119457fe5b600160008373ffffffffffffffffffffffffffffffffffffffff1673ffffffffffffffffffffffffffffffffffffffff16815260200190815260200160002060020160009054906101000a900460ff166004811115620011f057fe5b1462001233576040517f08c379a00000000000000000000000000000000000000000000000000000000081526004016200122a9062001f87565b60405180910390fd5b8173ffffffffffffffffffffffffffffffffffffffff166352b99968826040518263ffffffff1660e01b81526004016200126e919062001d1f565b600060405180830381600087803b1580156200128957600080fd5b505af11580156200129e573d6000803e3d6000fd5b50505050600360008273ffffffffffffffffffffffffffffffffffffffff1673ffffffffffffffffffffffffffffffffffffffff168152602001908152602001600020829080600181540180825580915050600190039060005260206000200160009091909190916101000a81548173ffffffffffffffffffffffffffffffffffffffff021916908373ffffffffffffffffffffffffffffffffffffffff1602179055505050565b828054600181600116156101000203166002900490600052602060002090601f016020900481019282601f106200138957805160ff1916838001178555620013ba565b82800160010185558215620013ba579182015b82811115620013b95782518255916020019190600101906200139c565b5b509050620013c9919062001425565b5090565b6040518060800160405280606081526020016060815260200160006004811115620013f457fe5b8152602001600073ffffffffffffffffffffffffffffffffffffffff1681525090565b611c03806200231683390190565b6200144a91905b80821115620014465760008160009055506001016200142c565b5090565b90565b6000813590506200145e81620022ad565b92915050565b6000813590506200147581620022c7565b92915050565b6000815190506200148c81620022c7565b92915050565b600082601f830112620014a457600080fd5b8135620014bb620014b5826200203f565b62002011565b91508082526020830160208301858383011115620014d857600080fd5b620014e583828462002200565b50505092915050565b600082601f8301126200150057600080fd5b81356200151762001511826200206c565b62002011565b915080825260208301602083018583830111156200153457600080fd5b6200154183828462002200565b50505092915050565b6000813590506200155b81620022e1565b92915050565b6000813590506200157281620022fb565b92915050565b6000602082840312156200158b57600080fd5b60006200159b848285016200144d565b91505092915050565b60008060408385031215620015b857600080fd5b6000620015c8858286016200144d565b9250506020620015db858286016200144d565b9150509250929050565b60008060008060808587031215620015fc57600080fd5b60006200160c878288016200144d565b94505060206200161f878288016200144d565b935050604062001632878288016200144d565b925050606085013567ffffffffffffffff8111156200165057600080fd5b6200165e8782880162001492565b91505092959194509250565b600080600080600060a086880312156200168357600080fd5b600062001693888289016200144d565b9550506020620016a68882890162001464565b9450506040620016b98882890162001561565b9350506060620016cc8882890162001464565b9250506080620016df8882890162001464565b9150509295509295909350565b600080604083850312156200170057600080fd5b600062001710858286016200144d565b925050602062001723858286016200154a565b9150509250929050565b6000602082840312156200174057600080fd5b600062001750848285016200147b565b91505092915050565b600080600080608085870312156200177057600080fd5b600085013567ffffffffffffffff8111156200178b57600080fd5b6200179987828801620014ee565b945050602085013567ffffffffffffffff811115620017b757600080fd5b620017c587828801620014ee565b9350506040620017d8878288016200154a565b9250506060620017eb878288016200144d565b91505092959194509250565b600080600080608085870312156200180e57600080fd5b600085013567ffffffffffffffff8111156200182957600080fd5b6200183787828801620014ee565b94505060206200184a878288016200154a565b93505060406200185d878288016200144d565b925050606062001870878288016200144d565b91505092959194509250565b60006200188a8383620018c2565b60208301905092915050565b620018a181620021b0565b82525050565b620018bc620018b6826200213a565b62002245565b82525050565b620018cd8162002126565b82525050565b620018de8162002126565b82525050565b6000620018f182620020a9565b620018fd8185620020d7565b93506200190a8362002099565b8060005b83811015620019415781516200192588826200187c565b97506200193283620020ca565b9250506001810190506200190e565b5085935050505092915050565b62001959816200214e565b82525050565b6200196a816200215a565b82525050565b620019856200197f826200215a565b62002259565b82525050565b60006200199882620020b4565b620019a48185620020e8565b9350620019b68185602086016200220f565b620019c18162002281565b840191505092915050565b6000620019d982620020b4565b620019e58185620020f9565b9350620019f78185602086016200220f565b80840191505092915050565b62001a0e81620021c4565b82525050565b62001a1f81620021c4565b82525050565b600062001a3282620020bf565b62001a3e818562002104565b935062001a508185602086016200220f565b62001a5b8162002281565b840191505092915050565b600062001a7382620020bf565b62001a7f818562002115565b935062001a918185602086016200220f565b62001a9c8162002281565b840191505092915050565b600062001ab6601e8362002115565b91507f537570706c6965722063616e2075736520746869732066756e6374696f6e00006000830152602082019050919050565b600062001af8602a8362002115565b91507f4f6e6c79204d616e7566616374757265722063616e206163636573732074686960008301527f732066756e6374696f6e000000000000000000000000000000000000000000006020830152604082019050919050565b600062001b6060278362002115565b91507f4f6e6c79205472616e73706f727465722063616e2063616c6c2074686973206660008301527f756e6374696f6e000000000000000000000000000000000000000000000000006020830152604082019050919050565b600062001bc8601d8362002115565b91507f5472616e73706f72746572205479706520697320696e636f72726563740000006000830152602082019050919050565b6000608083016000830151848203600086015262001c1a828262001a25565b9150506020830151848203602086015262001c36828262001a25565b915050604083015162001c4d604086018262001a03565b50606083015162001c626060860182620018c2565b508091505092915050565b62001c788162002199565b82525050565b62001c9362001c8d8262002199565b62002277565b82525050565b62001ca481620021a3565b82525050565b600062001cb88285620018a7565b60148201915062001cca828462001c7e565b6020820191508190509392505050565b600062001ce88284620019cc565b915081905092915050565b600062001d018285620019cc565b915062001d0f828462001970565b6020820191508190509392505050565b600060208201905062001d366000830184620018d3565b92915050565b600060208201905062001d53600083018462001896565b92915050565b600060c08201905062001d70600083018962001896565b62001d7f602083018862001896565b818103604083015262001d93818762001a66565b905062001da4606083018662001c6d565b62001db36080830185620018d3565b62001dc260a0830184620018d3565b979650505050505050565b600060608201905062001de46000830186620018d3565b62001df36020830185620018d3565b818103604083015262001e0781846200198b565b9050949350505050565b600060a08201905062001e286000830188620018d3565b818103602083015262001e3c818762001a66565b9050818103604083015262001e52818662001a66565b905062001e63606083018562001c6d565b62001e726080830184620018d3565b9695505050505050565b6000602082019050818103600083015262001e988184620018e4565b905092915050565b600060208201905062001eb760008301846200194e565b92915050565b600060808201905062001ed460008301876200195f565b62001ee3602083018662001c99565b62001ef260408301856200195f565b62001f0160608301846200195f565b95945050505050565b6000608082019050818103600083015262001f26818762001a66565b9050818103602083015262001f3c818662001a66565b905062001f4d604083018562001a14565b62001f5c6060830184620018d3565b95945050505050565b6000602082019050818103600083015262001f808162001aa7565b9050919050565b6000602082019050818103600083015262001fa28162001ae9565b9050919050565b6000602082019050818103600083015262001fc48162001b51565b9050919050565b6000602082019050818103600083015262001fe68162001bb9565b9050919050565b6000602082019050818103600083015262002009818462001bfb565b905092915050565b6000604051905081810181811067ffffffffffffffff821117156200203557600080fd5b8060405250919050565b600067ffffffffffffffff8211156200205757600080fd5b601f19601f8301169050602081019050919050565b600067ffffffffffffffff8211156200208457600080fd5b601f19601f8301169050602081019050919050565b6000819050602082019050919050565b600081519050919050565b600081519050919050565b600081519050919050565b6000602082019050919050565b600082825260208201905092915050565b600082825260208201905092915050565b600081905092915050565b600082825260208201905092915050565b600082825260208201905092915050565b6000620021338262002179565b9050919050565b6000620021478262002179565b9050919050565b60008115159050919050565b6000819050919050565b600081905062002174826200229f565b919050565b600073ffffffffffffffffffffffffffffffffffffffff82169050919050565b6000819050919050565b600060ff82169050919050565b6000620021bd82620021d8565b9050919050565b6000620021d18262002164565b9050919050565b6000620021e582620021ec565b9050919050565b6000620021f98262002179565b9050919050565b82818337600083830152505050565b60005b838110156200222f57808201518184015260208101905062002212565b838111156200223f576000848401525b50505050565b6000620022528262002263565b9050919050565b6000819050919050565b6000620022708262002292565b9050919050565b6000819050919050565b6000601f19601f8301169050919050565b60008160601b9050919050565b60058110620022aa57fe5b50565b620022b88162002126565b8114620022c457600080fd5b50565b620022d2816200215a565b8114620022de57600080fd5b50565b620022ec8162002199565b8114620022f857600080fd5b50565b6200230681620021a3565b81146200231257600080fd5b5056fe608060405234801561001057600080fd5b50604051611c03380380611c03833981810160405260c081101561003357600080fd5b8101908080519060200190929190805190602001909291908051604051939291908464010000000082111561006757600080fd5b8382019150602082018581111561007d57600080fd5b825186600182028301116401000000008211171561009a57600080fd5b8083526020830192505050908051906020019080838360005b838110156100ce5780820151818401526020810190506100b3565b50505050905090810190601f1680156100fb5780820380516001836020036101000a031916815260200191505b50604052602001805190602001909291908051906020019092919080519060200190929190505050856000806101000a81548173ffffffffffffffffffffffffffffffffffffffff021916908373ffffffffffffffffffffffffffffffffffffffff16021790555084600160006101000a81548173ffffffffffffffffffffffffffffffffffffffff021916908373ffffffffffffffffffffffffffffffffffffffff16021790555083600290805190602001906101ba929190610365565b508260038190555081600460006101000a81548173ffffffffffffffffffffffffffffffffffffffff021916908373ffffffffffffffffffffffffffffffffffffffff16021790555080600560006101000a81548173ffffffffffffffffffffffffffffffffffffffff021916908373ffffffffffffffffffffffffffffffffffffffff16021790555085600660006101000a81548173ffffffffffffffffffffffffffffffffffffffff021916908373ffffffffffffffffffffffffffffffffffffffff1602179055506000600281111561029257fe5b600660146101000a81548160ff021916908360028111156102af57fe5b02179055506000816040516102c3906103e5565b808273ffffffffffffffffffffffffffffffffffffffff1673ffffffffffffffffffffffffffffffffffffffff168152602001915050604051809103906000f080158015610315573d6000803e3d6000fd5b50905080600860006101000a81548173ffffffffffffffffffffffffffffffffffffffff021916908373ffffffffffffffffffffffffffffffffffffffff16021790555050505050505050610417565b828054600181600116156101000203166002900490600052602060002090601f016020900481019282601f106103a657805160ff19168380011785556103d4565b828001600101855582156103d4579182015b828111156103d35782518255916020019190600101906103b8565b5b5090506103e191906103f2565b5090565b610f2080610ce383390190565b61041491905b808211156104105760008160009055506001016103f8565b5090565b90565b6108bd806104266000396000f3fe608060405234801561001057600080fd5b50600436106100625760003560e01c806350e073bc1461006757806352b99968146100ab5780636b099dca146100ef578063807235201461010d578063d9f20edf14610296578063e594caa5146102e0575b600080fd5b6100a96004803603602081101561007d57600080fd5b81019080803573ffffffffffffffffffffffffffffffffffffffff169060200190929190505050610324565b005b6100ed600480360360208110156100c157600080fd5b81019080803573ffffffffffffffffffffffffffffffffffffffff169060200190929190505050610368565b005b6100f76104e5565b6040518082815260200191505060405180910390f35b610115610507565b604051808873ffffffffffffffffffffffffffffffffffffffff1673ffffffffffffffffffffffffffffffffffffffff168152602001806020018781526020018673ffffffffffffffffffffffffffffffffffffffff1673ffffffffffffffffffffffffffffffffffffffff1681526020018573ffffffffffffffffffffffffffffffffffffffff1673ffffffffffffffffffffffffffffffffffffffff1681526020018473ffffffffffffffffffffffffffffffffffffffff1673ffffffffffffffffffffffffffffffffffffffff1681526020018373ffffffffffffffffffffffffffffffffffffffff1673ffffffffffffffffffffffffffffffffffffffff168152602001828103825288818151815260200191508051906020019080838360005b8381101561025557808201518184015260208101905061023a565b50505050905090810190601f1680156102825780820380516001836020036101000a031916815260200191505b509850505050505050505060405180910390f35b61029e61067a565b604051808273ffffffffffffffffffffffffffffffffffffffff1673ffffffffffffffffffffffffffffffffffffffff16815260200191505060405180910390f35b610322600480360360208110156102f657600080fd5b81019080803573ffffffffffffffffffffffffffffffffffffffff1690602001909291905050506106a0565b005b80600560006101000a81548173ffffffffffffffffffffffffffffffffffffffff021916908373ffffffffffffffffffffffffffffffffffffffff16021790555050565b600560009054906101000a900473ffffffffffffffffffffffffffffffffffffffff1673ffffffffffffffffffffffffffffffffffffffff168173ffffffffffffffffffffffffffffffffffffffff161461040e576040517f08c379a000000000000000000000000000000000000000000000000000000000815260040180806020018281038252603981526020018061081f6039913960400191505060405180910390fd5b6001600281111561041b57fe5b600281111561042657fe5b600660149054906101000a900460ff16600281111561044157fe5b146104b4576040517f08c379a00000000000000000000000000000000000000000000000000000000081526004018080602001828103825260198152602001807f50726f64756374206e6f74207069636b6564207570207965740000000000000081525060200191505060405180910390fd5b6002808111156104c057fe5b600660146101000a81548160ff021916908360028111156104dd57fe5b021790555050565b6000600660149054906101000a900460ff16600281111561050257fe5b905090565b600060606000806000806000600160009054906101000a900473ffffffffffffffffffffffffffffffffffffffff166002600354600660009054906101000a900473ffffffffffffffffffffffffffffffffffffffff16600460009054906101000a900473ffffffffffffffffffffffffffffffffffffffff16600560009054906101000a900473ffffffffffffffffffffffffffffffffffffffff16600860009054906101000a900473ffffffffffffffffffffffffffffffffffffffff16858054600181600116156101000203166002900480601f01602080910402602001604051908101604052809291908181526020018280546001816001161561010002031660029004801561065c5780601f106106315761010080835404028352916020019161065c565b820191906000526020600020905b81548152906001019060200180831161063f57829003601f168201915b50505050509550965096509650965096509650965090919293949596565b600160009054906101000a900473ffffffffffffffffffffffffffffffffffffffff1681565b600460009054906101000a900473ffffffffffffffffffffffffffffffffffffffff1673ffffffffffffffffffffffffffffffffffffffff168173ffffffffffffffffffffffffffffffffffffffff1614610746576040517f08c379a00000000000000000000000000000000000000000000000000000000081526004018080602001828103825260308152602001806108586030913960400191505060405180910390fd5b6000600281111561075357fe5b600281111561075e57fe5b600660149054906101000a900460ff16600281111561077957fe5b146107ec576040517f08c379a000000000000000000000000000000000000000000000000000000000815260040180806020018281038252601c8152602001807f5061636b616765206d75737420626520617420537570706c6965722e0000000081525060200191505060405180910390fd5b600160028111156107f957fe5b600660146101000a81548160ff0219169083600281111561081657fe5b02179055505056fe4f6e6c79204d616e756661637475726572206f6620746865207061636b6167652063616e20726563656965766520746865207061636b6167654f6e6c79207472616e73706f72746572206f6620746865207061636b6167652063616e207069636b207061636b616765a2646970667358221220c13b3fe2c9f434e3cebe2be0641147ca46fcf5bba73a8bd42ef6967774bbecad64736f6c634300060600336080604052600060025534801561001557600080fd5b50604051610f20380380610f2083398181016040528101906100379190610092565b806000806101000a81548173ffffffffffffffffffffffffffffffffffffffff021916908373ffffffffffffffffffffffffffffffffffffffff16021790555050610104565b60008151905061008c816100ed565b92915050565b6000602082840312156100a457600080fd5b60006100b28482850161007d565b91505092915050565b60006100c6826100cd565b9050919050565b600073ffffffffffffffffffffffffffffffffffffffff82169050919050565b6100f6816100bb565b811461010157600080fd5b50565b610e0d806101136000396000f3fe608060405234801561001057600080fd5b50600436106100415760003560e01c806327506f53146100465780633626a3681461006457806378ce136514610080575b600080fd5b61004e61009e565b60405161005b9190610b77565b60405180910390f35b61007e60048036038101906100799190610886565b610364565b005b6100886106ee565b6040516100959190610c36565b60405180910390f35b60606000600254905060608167ffffffffffffffff811180156100c057600080fd5b506040519080825280602002602001820160405280156100fa57816020015b6100e76106f4565b8152602001906001900390816100df5790505b50905060008090505b8281101561035b57600160008281526020019081526020016000206040518060e0016040529081600082015481526020016001820160009054906101000a900473ffffffffffffffffffffffffffffffffffffffff1673ffffffffffffffffffffffffffffffffffffffff1673ffffffffffffffffffffffffffffffffffffffff1681526020016002820160009054906101000a900473ffffffffffffffffffffffffffffffffffffffff1673ffffffffffffffffffffffffffffffffffffffff1673ffffffffffffffffffffffffffffffffffffffff16815260200160038201548152602001600482018054600181600116156101000203166002900480601f0160208091040260200160405190810160405280929190818152602001828054600181600116156101000203166002900480156102825780601f1061025757610100808354040283529160200191610282565b820191906000526020600020905b81548152906001019060200180831161026557829003601f168201915b50505050508152602001600582018054600181600116156101000203166002900480601f0160208091040260200160405190810160405280929190818152602001828054600181600116156101000203166002900480156103245780601f106102f957610100808354040283529160200191610324565b820191906000526020600020905b81548152906001019060200180831161030757829003601f168201915b5050505050815260200160068201548152505082828151811061034357fe5b60200260200101819052508080600101915050610103565b50809250505090565b6000429050600060025414156104d6576040518060e001604052808881526020018773ffffffffffffffffffffffffffffffffffffffff1681526020018673ffffffffffffffffffffffffffffffffffffffff168152602001858152602001848152602001838152602001828152506001600060025481526020019081526020016000206000820151816000015560208201518160010160006101000a81548173ffffffffffffffffffffffffffffffffffffffff021916908373ffffffffffffffffffffffffffffffffffffffff16021790555060408201518160020160006101000a81548173ffffffffffffffffffffffffffffffffffffffff021916908373ffffffffffffffffffffffffffffffffffffffff1602179055506060820151816003015560808201518160040190805190602001906104a6929190610763565b5060a08201518160050190805190602001906104c3929190610763565b5060c08201518160060155905050610691565b836001600060016002540381526020019081526020016000206000015414610533576040517f08c379a000000000000000000000000000000000000000000000000000000000815260040161052a90610c16565b60405180910390fd5b6040518060e001604052808881526020018773ffffffffffffffffffffffffffffffffffffffff1681526020018673ffffffffffffffffffffffffffffffffffffffff168152602001858152602001848152602001838152602001828152506001600060025481526020019081526020016000206000820151816000015560208201518160010160006101000a81548173ffffffffffffffffffffffffffffffffffffffff021916908373ffffffffffffffffffffffffffffffffffffffff16021790555060408201518160020160006101000a81548173ffffffffffffffffffffffffffffffffffffffff021916908373ffffffffffffffffffffffffffffffffffffffff160217905550606082015181600301556080820151816004019080519060200190610665929190610763565b5060a0820151816005019080519060200190610682929190610763565b5060c082015181600601559050505b60016002600082825401925050819055507f30d01d358fb0899fe4d50947b2e9301c952d9eed09b14c7ecdcbeed4434557c4878787878588886040516106dd9796959493929190610b99565b60405180910390a150505050505050565b60025481565b6040518060e0016040528060008019168152602001600073ffffffffffffffffffffffffffffffffffffffff168152602001600073ffffffffffffffffffffffffffffffffffffffff168152602001600080191681526020016060815260200160608152602001600081525090565b828054600181600116156101000203166002900490600052602060002090601f016020900481019282601f106107a457805160ff19168380011785556107d2565b828001600101855582156107d2579182015b828111156107d15782518255916020019190600101906107b6565b5b5090506107df91906107e3565b5090565b61080591905b808211156108015760008160009055506001016107e9565b5090565b90565b60008135905061081781610da9565b92915050565b60008135905061082c81610dc0565b92915050565b600082601f83011261084357600080fd5b813561085661085182610c7e565b610c51565b9150808252602083016020830185838301111561087257600080fd5b61087d838284610d56565b50505092915050565b60008060008060008060c0878903121561089f57600080fd5b60006108ad89828a0161081d565b96505060206108be89828a01610808565b95505060406108cf89828a01610808565b94505060606108e089828a0161081d565b935050608087013567ffffffffffffffff8111156108fd57600080fd5b61090989828a01610832565b92505060a087013567ffffffffffffffff81111561092657600080fd5b61093289828a01610832565b9150509295509295509295565b600061094b8383610ab6565b905092915050565b61095c81610d10565b82525050565b61096b81610d10565b82525050565b600061097c82610cba565b6109868185610cdd565b93508360208202850161099885610caa565b8060005b858110156109d457848403895281516109b5858261093f565b94506109c083610cd0565b925060208a0199505060018101905061099c565b50829750879550505050505092915050565b6109ef81610d22565b82525050565b6109fe81610d22565b82525050565b6000610a0f82610cc5565b610a198185610cee565b9350610a29818560208601610d65565b610a3281610d98565b840191505092915050565b6000610a4882610cc5565b610a528185610cff565b9350610a62818560208601610d65565b610a6b81610d98565b840191505092915050565b6000610a83601b83610cff565b91507f5472616e73616374696f6e206572726f72206f636375727265642100000000006000830152602082019050919050565b600060e083016000830151610ace60008601826109e6565b506020830151610ae16020860182610953565b506040830151610af46040860182610953565b506060830151610b0760608601826109e6565b5060808301518482036080860152610b1f8282610a04565b91505060a083015184820360a0860152610b398282610a04565b91505060c0830151610b4e60c0860182610b59565b508091505092915050565b610b6281610d4c565b82525050565b610b7181610d4c565b82525050565b60006020820190508181036000830152610b918184610971565b905092915050565b600060e082019050610bae600083018a6109f5565b610bbb6020830189610962565b610bc86040830188610962565b610bd560608301876109f5565b610be26080830186610b68565b81810360a0830152610bf48185610a3d565b905081810360c0830152610c088184610a3d565b905098975050505050505050565b60006020820190508181036000830152610c2f81610a76565b9050919050565b6000602082019050610c4b6000830184610b68565b92915050565b6000604051905081810181811067ffffffffffffffff82111715610c7457600080fd5b8060405250919050565b600067ffffffffffffffff821115610c9557600080fd5b601f19601f8301169050602081019050919050565b6000819050602082019050919050565b600081519050919050565b600081519050919050565b6000602082019050919050565b600082825260208201905092915050565b600082825260208201905092915050565b600082825260208201905092915050565b6000610d1b82610d2c565b9050919050565b6000819050919050565b600073ffffffffffffffffffffffffffffffffffffffff82169050919050565b6000819050919050565b82818337600083830152505050565b60005b83811015610d83578082015181840152602081019050610d68565b83811115610d92576000848401525b50505050565b6000601f19601f8301169050919050565b610db281610d10565b8114610dbd57600080fd5b50565b610dc981610d22565b8114610dd457600080fd5b5056fea2646970667358221220a2588559b12d3462f3b84953ded9cd9a56c075d3b3ffe55799ffe16b6aa697b864736f6c63430006060033a2646970667358221220d84f0a280f839cbdbd62aac7257d893edce6940c7a03e42ad1497dbaac44ac0664736f6c63430006060033",
  "immutableReferences": {},
  "source": "// SPDX-License-Identifier: MIT\r\npragma solidity ^0.6.6;\r\npragma experimental ABIEncoderV2;\r\n\r\nimport './RawMaterial.sol';\r\nimport './Product.sol';\r\n\r\ncontract SupplyChain {\r\n    address public Owner;\r\n\r\n    //Cosntruct\r\n    constructor() public {\r\n        Owner = msg.sender;\r\n    }\r\n\r\n    modifier onlyOwner() {\r\n        require(Owner == msg.sender);\r\n        _;\r\n    }\r\n    \r\n    enum roles {\r\n        noRole,\r\n        supplier,\r\n        transporter,\r\n        manufacturer,\r\n        wholesaler\r\n    }\r\n\r\n    struct userData {\r\n        string name;\r\n        string userLoc;\r\n        roles role;\r\n        address userAddr;\r\n    }\r\n\r\n    mapping (address => userData) public userInfo;\r\n    \r\n    ///////// EVENTS\r\n    event UserRegister(address _address, string name, string userLoc, uint role, address userAddr);\r\n    event sendEvent(address seller, address buyer, address indexed packageAddr, bytes signature, uint indexed timestamp);\r\n    event buyEvent(address buyer, address indexed seller, address packageAddr, bytes signature, uint indexed timestamp);\r\n    event respondEvent(address indexed buyer, address seller, address packageAddr, bytes signature, uint indexed timestamp);\r\n\r\n    /////// all components //////////\r\n    function requestProduct(address buyer, address seller, address packageAddr, bytes memory signature) public {\r\n        emit buyEvent(buyer, seller, packageAddr, signature, now);\r\n    }\r\n\r\n    function respondToEntity(address buyer, address seller, address packageAddr, bytes memory signature) public {\r\n        emit respondEvent(buyer, seller, packageAddr, signature, now);\r\n    }\r\n\r\n    function verify(address p, bytes32 _hashedMessage, uint8 _v, bytes32 _r, bytes32 _s) public pure returns(bool) {\r\n        bytes memory prefix = \"\\x19Ethereum Signed Message:\\n32\";\r\n        bytes32 prefixedHashMessage = keccak256(abi.encodePacked(prefix, _hashedMessage));\r\n        return p == ecrecover(prefixedHashMessage, _v, _r, _s);\r\n    }\r\n\r\n    function sendPackageToEntity(address buyer, address seller, address packageAddr, bytes memory signature) public {\r\n        emit sendEvent(seller, buyer, packageAddr, signature, now);\r\n    }\r\n\r\n    /////////////// Owner //////////\r\n\r\n    function registerUser(string memory _name, string memory _loc, uint _role, address _userAddr) public onlyOwner {\r\n        userInfo[_userAddr].name = _name;\r\n        userInfo[_userAddr].userLoc = _loc;\r\n        userInfo[_userAddr].role = roles(_role);\r\n        userInfo[_userAddr].userAddr = _userAddr;\r\n\r\n        emit UserRegister(_userAddr, _name, _loc, _role, _userAddr);\r\n    }\r\n\r\n    function getUserInfo(address _address) public view returns(\r\n        userData memory\r\n        ) {\r\n        return userInfo[_address];\r\n    }\r\n\r\n    /////////////// Supplier //////////////////////\r\n\r\n    mapping (address => address[]) supplierRawMaterials;\r\n    modifier onlySupplier() {\r\n        require(userInfo[msg.sender].role == roles.supplier,\"Supplier can use this function\");\r\n        _;\r\n    }\r\n\r\n    function createRawMaterialPackage(\r\n        string memory _description,\r\n        uint _quantity,\r\n        address _transporterAddr,\r\n        address _manufacturerAddr\r\n        ) public onlySupplier {\r\n\r\n        RawMaterial rawMaterial = new RawMaterial(\r\n            msg.sender,\r\n            address(bytes20(sha256(abi.encodePacked(msg.sender, block.timestamp)))),\r\n            _description,\r\n            _quantity,\r\n            _transporterAddr,\r\n            _manufacturerAddr\r\n        );\r\n        supplierRawMaterials[msg.sender].push(address(rawMaterial));\r\n    }\r\n\r\n    function getAllPackages() public view returns(address[] memory) {\r\n        uint len = supplierRawMaterials[msg.sender].length;\r\n        address[] memory ret = new address[](len);\r\n        for (uint i = 0; i < len; i++) {\r\n            ret[i] = supplierRawMaterials[msg.sender][i];\r\n        }\r\n        return ret;\r\n    }\r\n\r\n    ///////////////  Transporter ///////////////\r\n    modifier onlyTransporter() {\r\n        require(userInfo[msg.sender].role == roles.transporter,\"Only Transporter can call this function\");\r\n        _;\r\n    }\r\n\r\n    modifier validTypeTransporter(uint _transporterType ) {\r\n        require(_transporterType > 0,\"Transporter Type is incorrect\");\r\n        _;\r\n    }\r\n    function transporterHandlePackage(\r\n        address _address,\r\n        uint _transporterType\r\n        ) public onlyTransporter validTypeTransporter(_transporterType) {\r\n        \r\n        if(_transporterType == 1) { \r\n            /// Supplier -> Manufacturer\r\n            RawMaterial(_address).pickupPackage(msg.sender);\r\n        }else if(_transporterType == 2) { \r\n            /// Manufacturer -> Wholesaler\r\n            Product(_address).pickItemProduct(msg.sender);\r\n        }\r\n    }\r\n\r\n \r\n\r\n     ///////////////  Manufacturer ///////////////\r\n    mapping (address => address[]) public manufacturerRawMaterials;\r\n    mapping (address => address[]) public manufacturerProducts;\r\n\r\n    function manufacturerReceivedRawMaterials(address _addr, address _tempAddrManufacturer ) public {\r\n        require(userInfo[_tempAddrManufacturer].role == roles.manufacturer, \"Only Manufacturer can access this function\");\r\n        RawMaterial(_addr).receivedPackage(_tempAddrManufacturer);\r\n        manufacturerRawMaterials[_tempAddrManufacturer].push(_addr);\r\n    }\r\n\r\n\r\n    modifier onlyManufacturer() {\r\n        require(userInfo[msg.sender].role == roles.manufacturer,\"Only Manufacturer can create ItemProducto\");\r\n        _;\r\n    }\r\n\r\n    \r\n\r\n\r\n}",
  "sourcePath": "C:\\Users\\pisci\\Desktop\\victor\\supply\\contracts\\SupplyChain.sol",
  "compiler": {
    "name": "solc",
    "version": "0.6.6+commit.6c089d02.Emscripten.clang"
  },
  "schemaVersion": "3.4.8",
  "updatedAt": "2022-07-26T03:22:40.098Z",
  "networkType": "ethereum",
  "devdoc": {
    "methods": {}
  },
  "userdoc": {
    "methods": {
      "registerUser(string,string,uint256,address)": {
        "notice": "//////////// Owner //////////"
      },
      "requestProduct(address,address,address,bytes)": {
        "notice": "//// all components //////////"
      }
    }
  }
}